S013000048756D616E4465746563742E73726563BF
S113000021C03BC03AC03AC038C037C036C035C042
S113001041C233C032C031C030C02FC02EC02DC049
S11300202CC02BC02AC029C028C027C026C025C088
S113003024C023C06AC16BC16CC16DC16EC16FC1E4
S113004070C171C111241FBECFEFCDBFDFE3DEBF8E
S11300501FE3A0E0BFE3E2E1FAE002C005900D92E5
S1130060A231B107D9F72FE3A2E1BFE301C01D928A
S1130070A232B207E1F7CAD2C6C4C2CF1F920F920E
S11300800FB60F9211242F933F934F935F936F9367
S11300907F938F939F93AF93BF93EF93FF9380E1ED
S11300A08093090464E080E094E089D1882319F006
S11300B08AE09AE878D4FF91EF91BF91AF919F9134
S11300C08F917F916F915F914F913F912F910F90FD
S11300D00FBE0F901F90189580E097D082E0A5D0B6
S11300E027D146D220E030E041E062E080E094E0B5
S11300F020D120E030E041E061E080E494E019D1D7
S113010020E030E041E060E080E494E012D120E0BF
S11301103FE340E064E080E094E00BD120E835E286
S113012040E050E060E876E988E990E025D220EAF2
S113013036E841E050E060E876E988E990E04BD1A8
S113014040E450E060E876E988E990E0CBD141E012
S113015062E080E094E01DD178942FE38DE093E099
S1130160215080409040E1F700C00000EFD160933F
S1130170173F7093183F8093193F90931A3F2FEFC6
S113018088E09DE3215080409040E1F700C00000EA
S11301908EE1AAD081E090E09ED008950F931F9342
S11301A0D5D10091173F1091183F2091193F3091FC
S11301B01A3FDC01CB01801B910BA20BB30B8938D6
S11301C09341A105B105A0F0C1D16093173F70938D
S11301D0183F8093193F90931A3F81D08091163F26
S11301E0882319F01092163F03C081E08093163FD4
S11301F041E061E080E494E0CCD041E060E080E460
S113020094E0C7D01F910F910895811106C090E02A
S113021088ED84BF909360000895813029F493E0C1
S113022088ED84BF909360000895843081F018F4C1
S1130230823031F021C0883089F08031B1F01CC0A7
S113024021E030E088ED84BF20936100089523E02D
S113025030E088ED84BF20936100089525E030E00C
S113026088ED84BF20936100089527E030E088ED95
S113027084BF20936100089590E088ED84BF90933B
S113028061000895CF93DF93CDB7DEB72A97CDBF32
S1130290DEBF9EE799839FEF9A8396E09B838C83CE
S11302A01D827E836F8390E08B5F9E4F870F911D2D
S11302B0860F911D919581959109988789878FEE75
S11302C08A876AE0CE0101968CD12A96CDBFDEBF23
S11302D0DF91CF910895BC0183E0D4DF089560E0FD
S11302E070E081E0CFDF08958F3108F08EE1682F50
S11302F070E086E0C7DF0895462F50E0483051058E
S1130300A0F4FA01E65EFF4F0994409608954196E1
S113031008954296089543960895449608954596FF
S11303200895469608954796089580E090E00895CC
S11303300895CF93DF93413051F421E030E002C0BF
S1130340220F331F6A95E2F7FC0121831FC0E901E4
S113035021E030E0062E02C0220F331F0A94E2F798
S1130360FC012283C9DFFC01892B81F0209771F005
S11303708881811102C090E001C098E089818823BE
S113038019F08A81982B01C094609083DF91CF91FA
S11303900895442351F021E030E002C0220F331FBE
S11303A06A95E2F7FC012583089521E030E002C05C
S11303B0220F331F6A95E2F7FC0126830895FC019E
S11303C0208530E002C0359527956A95E2F781E0F3
S11303D020FF80E00895220F331F441F551FB5D21C
S11303E0BA01A9014550510961097109A0E1B8E0B8
S11303F016964C931697E0E2F4E081818360818342
S113040085818360858383E013968C93139781E0C1
S113041015968C9308958830910521F148F4823023
S11304209105C1F084309105C9F0019779F50FC0A9
S113043080349105F9F018F44097C1F027C0811574
S113044021E09207D9F081159440E1F01FC0109289
S1130450000A089582E08093000A089584E080935E
S1130460000A089586E08093000A089588E0809346
S1130470000A08958AE08093000A08958CE080932E
S1130480000A08958EE08093000A08958AE080931C
S1130490000A08951F920F920FB60F9211248F93A2
S11304A09F93AF93BF938091123F9091133FA0917C
S11304B0143FB091153F0196A11DB11D8093123FC9
S11304C09093133FA093143FB093153F81E0809322
S11304D00B0ABF91AF919F918F910F900FBE0F9018
S11304E01F901895CF92DF92EF92FF92CF93DF93F4
S11304F06B017C01EA019A01A8EEB3E048D29B01AA
S1130500AC01C701B60121D269017A0181E0C81AA0
S1130510D108E108F108C114D10481E0E806F1042E
S113052068F4CE0178DFE0E0FAE0C6A2D7A281E069
S1130530828780818160808381E001C080E0DF91D7
S1130540CF91FF90EF90DF90CF900895F894609151
S1130550123F7091133F8091143F9091153F78940E
S1130560089583E09FE380931E3F90931F3F089577
S113057010920508F6DF0895CA01B901EBD020E016
S113058030E040E851E474D19B01AC0160E876E9C5
S113059088E19EE43ED0AFD0E0E0F8E06087718768
S11305A0A0E2B4E084E011968C93119788E012964F
S11305B08C9380EC868383E087830895909104086C
S11305C095FFFCCF809302080895CF93C82F8A30FB
S11305D011F48DE0F3DF8C2FF1DF80E090E0CF9118
S11305E008950F931F93CF93DF938C01D62FC0E010
S11305F006C0F801EC0FF11D8081E0DFCF5FCD175D
S1130600C0F3DF91CF911F910F91089565DDC6DD91
S1130610FECF0E941D030C94FE030E94F70358F0C2
S11306200E94F00340F029F45F3F29F00C94E703A3
S113063051110C9432040C94ED030E940F0468F3DE
S11306409923B1F3552391F3951B550BBB27AA2787
S113065062177307840738F09F5F5F4F220F331FC1
S1130660441FAA1FA9F335D00E2E3AF0E0E832D089
S113067091505040E695001CCAF72BD0FE2F29D08C
S1130680660F771F881FBB1F261737074807AB075E
S1130690B0E809F0BB0B802DBF01FF2793585F4FD3
S11306A03AF09E3F510578F00C94E7030C94320421
S11306B05F3FE4F3983ED4F3869577956795B795B5
S11306C0F7959F5FC9F7880F911D9695879597F9C0
S11306D00895E1E0660F771F881FBB1F6217730739
S11306E08407BA0720F0621B730B840BBA0BEE1F4E
S11306F088F7E09508950E94170488F09F5798F0B2
S1130700B92F9927B751B0F0E1F0660F771F881F12
S1130710991F1AF0BA95C9F714C0B13091F00E942C
S11307203104B1E008950C943104672F782F8827A1
S1130730B85F39F0B93FCCF3869577956795B39553
S1130740D9F73EF490958095709561957F4F8F4FC2
S11307509F4F0895E89409C097FB3EF490958095C7
S1130760709561957F4F8F4F9F4F9923A9F0F92F73
S113077096E9BB279395F695879577956795B795F1
S1130780F111F8CFFAF4BB0F11F460FF1BC06F5FD7
S11307907F4F8F4F9F4F16C0882311F096E911C0E9
S11307A0772321F09EE8872F762F05C0662371F00A
S11307B096E8862F70E060E02AF09A95660F771F1E
S11307C0881FDAF7880F9695879597F9089597F912
S11307D09F6780E870E060E008959FEF80EC0895E3
S11307E000240A941616170618060906089500240C
S11307F00A9412161306140605060895092E039486
S1130800000C11F4882352F0BB0F40F4BF2B11F4F9
S113081060FF04C06F5F7F4F8F4F9F4F089557FD58
S11308209058440F551F59F05F3F71F04795880F5A
S113083097FB991F61F09F3F79F0879508951216F1
S113084013061406551FF2CF4695F1DF08C016169D
S113085017061806991FF1CF86957105610508944E
S11308600895E894BB2766277727CB0197F9089565
S11308700E944B040C94FE030E94F00338F00E9483
S1130880F70320F0952311F00C94E7030C94ED0387
S113089011240C9432040E940F0470F3959FC1F349
S11308A0950F50E0551F629FF001729FBB27F00D1A
S11308B0B11D639FAA27F00DB11DAA1F649F66276F
S11308C0B00DA11D661F829F2227B00DA11D621FBE
S11308D0739FB00DA11D621F839FA00D611D221F78
S11308E0749F3327A00D611D231F849F600D211D5C
S11308F0822F762F6A2F11249F5750409AF0F1F0DF
S113090088234AF0EE0FFF1FBB1F661F771F881F47
S113091091505040A9F79E3F510580F00C94E70395
S11309200C9432045F3FE4F3983ED4F386957795B4
S11309306795B795F795E7959F5FC1F7FE2B880FED
S1130940911D9695879597F90895A1E21A2EAA1BF1
S1130950BB1BFD010DC0AA1FBB1FEE1FFF1FA2176B
S1130960B307E407F50720F0A21BB30BE40BF50B68
S1130970661F771F881F991F1A9469F760957095F1
S1130980809590959B01AC01BD01CF010895A29F74
S1130990B001B39FC001A39F01D0B29F700D811D10
S11309A01124911D08950F931F93CF93DF93E0912A
S11309B01E3FF0911F3F238121FF1BC08C01D0E01B
S11309C0C0E0F80181918F0160911E3F70911F3F3B
S11309D0DB011896ED91FC911997882331F0099564
S11309E0892B79F3DFEFCFEFECCF8AE00995892BE0
S11309F019F08FEF9FEF02C08D2F9C2FDF91CF91C5
S10D0A001F910F910895F894FFCFA1
S10B0A0A5049525F4F4E0D00EC
S1130A120001020000000200000000E502000000E4
S1050A220000CE
S9030000FC
