S013000048756D616E4465746563742E73726563BF
S113000021C03BC03AC03AC038C037C036C035C042
S113001091C233C032C031C030C02FC02EC02DC0F9
S11300202CC02BC02AC029C028C027C026C025C088
S113003024C023C005C106C107C108C109C10AC142
S11300400BC10CC111241FBECFEFCDBFDFE3DEBF58
S11300501EE3A0E0BEE3E9E5F2E102C005900D92E3
S1130060AE30B107D9F72EE3AEE0BEE301C01D9276
S1130070AF31B207E1F70FD4D1C8C2CF1F920F92AC
S11300800FB60F9211248F931A9B02C084E083B998
S11300908F910F900FBE0F901F90189580E08AD01B
S11300A082E098D0E0D026D1B3D220E030E041E025
S11300B061E080E094E0D8D020E835E240E050E010
S11300C060E876E988E990E0A7D220EA36E841E0E2
S11300D050E060E876E988E990E010D140E450E02F
S11300E060E876E988E990E04DD22FE38DE093E073
S11300F0215080409040E1F700C00000789480E2F5
S113010092E9A9D5E2D2811104C08FE292E9A3D584
S1130110FFCF2FE38DE093E0215080409040E1F742
S113012000C0000063D26093133E7093143E80932A
S1130130153E9093163E08950F931F9357D2009146
S1130140133E1091143E2091153E3091163EDC0171
S1130150CB01801B910BA20BB30B85369105A10536
S1130160B105F8F043D26093133E7093143E80932C
S1130170153E9093163E36D39F938F9389E492E96C
S11301809F938F9355D50F900F900F900F90809160
S1130190123E882319F01092123E03C081E080932E
S11301A0123E4091123E61E080E094E08DD01F91B8
S11301B00F910895811106C090E088ED84BF90935B
S11301C060000895813029F493E088ED84BF909312
S11301D060000895843081F018F4823031F021C039
S11301E0883089F08031B1F01CC021E030E088ED26
S11301F084BF20936100089523E030E088ED84BF3C
S113020020936100089525E030E088ED84BF2093B9
S11302106100089527E030E088ED84BF20936100F9
S1130220089590E088ED84BF909361000895462F6F
S113023050E048305105A0F4FA01E65EFF4F0994FE
S113024040960895419608954296089543960895D8
S113025044960895459608954696089547960895B8
S113026080E090E008950895CF93DF93413051F4F6
S113027021E030E002C0220F331F6A95E2F7FC014F
S113028021831FC0E90121E030E0062E02C0220FC5
S1130290331F0A94E2F7FC012283C9DFFC01892B96
S11302A081F0209771F08881811102C090E001C033
S11302B098E08981882319F08A81982B01C0946081
S11302C09083DF91CF910895442351F021E030E0F1
S11302D002C0220F331F6A95E2F7FC0125830895BB
S11302E021E030E002C0220F331F6A95E2F7FC01DF
S11302F02683089581E0809313080895220F331F05
S1130300441F551F67D4BA01A90145505109610919
S11303107109A0E1B8E016964C931697E0E2F4E078
S113032081818360818385818360858383E01396E3
S11303308C93139781E015968C93089590911508EA
S113034093709330D9F3880F809317088091150820
S1130350807CE1F38091150884FF1AC083E08093C8
S1130360140880E00895FB01E90FF11D808180935A
S113037018088091150886FFFCCF8091150884FF2A
S113038005C083E08093140880E008959F5F01C056
S113039090E0941740F383E08093140881E008957B
S11303A0982F990F909317089091150896FFFCCFFA
S11303B0609318089091150896FFFCCF90E0880F81
S11303C0991F81608093170890E01BC080911508E5
S11303D08823E4F7E92FF0E0622F70E0615071099F
S11303E0E617F70721F487E08093140803C082E03E
S11303F080931408FA01E90FF11D80911808808395
S11304009F5F921718F381E00895982F990F9093A6
S113041017089091150896FFFCCF9091150894FF4A
S113042005C083E08093140880E008957093180851
S11304309091150896FFFCCF9091150894FF05C084
S113044083E08093140880E00895609318089091E5
S1130450150896FFFCCF9091150894FF05C083E022
S11304608093140880E0089590E0880F991F8160BC
S11304708093170890E01BC0809115088823E4F747
S1130480E92FF0E0622F70E061507109E617F70779
S113049021F487E08093140803C082E08093140859
S11304A0FA01E90FF11D8091180880839F5F92176C
S11304B018F381E008958830910521F148F48230E1
S11304C09105C1F084309105C9F0019779F50FC009
S11304D080349105F9F018F44097C1F027C08115D4
S11304E021E09207D9F081159440E1F01FC01092E9
S11304F0000A089582E08093000A089584E08093BE
S1130500000A089586E08093000A089588E08093A5
S1130510000A08958AE08093000A08958CE080938D
S1130520000A08958EE08093000A08958AE080937B
S1130530000A08951F920F920FB60F9211248F9301
S11305409F93AF93BF9380910E3E90910F3EA091E5
S1130550103EB091113E0196A11DB11D80930E3E37
S113056090930F3EA093103EB093113E81E0809390
S11305700B0ABF91AF919F918F910F900FBE0F9077
S11305801F901895CF92DF92EF92FF92CF93DF9353
S11305906B017C01EA019A01A8EEB3E03DD39B0113
S11305A0AC01C701B60116D369017A0181E0C81A0A
S11305B0D108E108F108C114D10481E0E806F1048E
S11305C068F4CE0178DFE0E0FAE0C6A2D7A281E0C9
S11305D0828780818160808381E001C080E0DF9137
S11305E0CF91FF90EF90DF90CF900895F8946091B1
S11305F00E3E70910F3E8091103E9091113E789482
S1130600089580E09EE380931B3E90931C3E0895E2
S113061010920508F6DF0895CA01B901E0D120E07F
S113062030E040E851E469D29B01AC0160E876E92E
S113063088E19EE433D1A4D1E0E0F8E060877187DB
S1130640A0E2B4E084E011968C93119788E01296AE
S11306508C9380EC868383E08783089590910408CB
S113066095FFFCCF809302080895CF93C82F8A305A
S113067011F48DE0F3DF8C2FF1DF80E090E0CF9177
S11306800895CF93DF9300D0CDB7DEB789836A8313
S113069042E0BE016F5F7F4F89E250DE0F900F9002
S11306A0DF91CF910895CF93DF931F92CDB7DEB73B
S11306B0198221E0AE014F5F5F4F682F89E270DE3F
S11306C089810F90DF91CF91089580EC90E0EBDF6A
S11306D08E3EE1F460E088E8D4DF61E080E8D1DFB9
S11306E061E08FEFCEDF60E080E0CBDF81E990E076
S11306F0DADF8093183E61E080E0C3DF60E08FEFD3
S1130700C0DF60E080E8BDDF81E0089580E0089507
S1130710FF920F931F93CF93DF93CDB7DEB7C054EF
S1130720D109CDBFDEBF8B01F42E242FAE014F5F64
S11307305F4F682F89E234DE811103C08FEF898314
S11307408A8320E00EC0822F90E0F801E80FF91FA1
S1130750A1E0B0E0AC0FBD1FA80FB91F8C9180833E
S11307602F5F2F1580F3C05CDF4FCDBFDEBFDF915D
S1130770CF911F910F91FF900895FF920F931F93B4
S1130780CF93DF93CDB7DEB7C054D109CDBFDEBF61
S11307908B01F42E242FAE014F5F5F4FBC0189E221
S11307A034DE811103C08FEF89838A8320E00EC079
S11307B0822F90E0F801E80FF91FA1E0B0E0AC0F40
S11307C0BD1FA80FB91F8C9180832F5F2F1580F355
S11307D0C05CDF4FCDBFDEBFDF91CF911F910F9182
S11307E0FF9008950F931F93CF93DF9300D01F9230
S11307F0CDB7DEB761E080E844DF61E08FEF41DF31
S113080060E080E03EDF6091183E81E93ADF61E01C
S113081080E037DF60E08FEF34DF60E080E831DFD5
S113082061E080E02EDF80E090E03DDF80FDFBCFE3
S113083008E813E10EC041E0BE016F5F7F4F83E122
S113084090E09BDF01501109E1F081E28A95F1F714
S113085000008981877079F342E0BE016E5F7F4FAB
S11308608EE156DF0A8110E0102F00278B81082BC0
S113087061E08BE006DF60E080E003DF802F912FF2
S113088002C08FEF9FEF2396CDBFDEBFDF91CF91E4
S11308901F910F91089502DC4FDCFECF0E94620489
S11308A00C9443050E943C0558F00E94350540F025
S11308B029F45F3F29F00C942C0551110C94770511
S11308C00C9432050E94540568F39923B1F355231F
S11308D091F3951B550BBB27AA276217730784074F
S11308E038F09F5F5F4F220F331F441FAA1FA9F3E5
S11308F035D00E2E3AF0E0E832D091505040E695D3
S1130900001CCAF72BD0FE2F29D0660F771F881F33
S1130910BB1F261737074807AB07B0E809F0BB0B26
S1130920802DBF01FF2793585F4F3AF09E3F51053A
S113093078F00C942C050C9477055F3FE4F3983E13
S1130940D4F3869577956795B795F7959F5FC9F723
S1130950880F911D9695879597F90895E1E0660FA4
S1130960771F881FBB1F621773078407BA0720F01D
S1130970621B730B840BBA0BEE1F88F7E095089586
S11309800E945C0588F09F5798F0B92F9927B751BA
S1130990B0F0E1F0660F771F881F991F1AF0BA951F
S11309A0C9F714C0B13091F00E947605B1E0089502
S11309B00C947605672F782F8827B85F39F0B93FF4
S11309C0CCF3869577956795B395D9F73EF49095D2
S11309D08095709561957F4F8F4F9F4F0895E89450
S11309E009C097FB3EF490958095709561957F4F73
S11309F08F4F9F4F9923A9F0F92F96E9BB27939521
S1130A00F695879577956795B795F111F8CFFAF430
S1130A10BB0F11F460FF1BC06F5F7F4F8F4F9F4F61
S1130A2016C0882311F096E911C0772321F09EE8BF
S1130A30872F762F05C0662371F096E8862F70E025
S1130A4060E02AF09A95660F771F881FDAF7880FFF
S1130A509695879597F9089597F99F6780E870E0D0
S1130A6060E008959FEF80EC089500240A94161620
S1130A70170618060906089500240A941216130688
S1130A80140605060895092E0394000C11F4882316
S1130A9052F0BB0F40F4BF2B11F460FF04C06F5F32
S1130AA07F4F8F4F9F4F089557FD9058440F551F08
S1130AB059F05F3F71F04795880F97FB991F61F0DC
S1130AC09F3F79F087950895121613061406551F53
S1130AD0F2CF4695F1DF08C0161617061806991FBF
S1130AE0F1CF86957105610508940895E894BB27B4
S1130AF066277727CB0197F908950E9490050C94F7
S1130B0043050E94350538F00E943C0520F09523EA
S1130B1011F00C942C050C94320511240C947705D7
S1130B200E94540570F3959FC1F3950F50E0551F33
S1130B30629FF001729FBB27F00DB11D639FAA272E
S1130B40F00DB11DAA1F649F6627B00DA11D661F7D
S1130B50829F2227B00DA11D621F739FB00DA11D9E
S1130B60621F839FA00D611D221F749F3327A00D58
S1130B70611D231F849F600D211D822F762F6A2FF4
S1130B8011249F5750409AF0F1F088234AF0EE0F59
S1130B90FF1FBB1F661F771F881F91505040A9F786
S1130BA09E3F510580F00C942C050C9477055F3F13
S1130BB0E4F3983ED4F3869577956795B795F795C2
S1130BC0E7959F5FC1F7FE2B880F911D969587953A
S1130BD097F90895A1E21A2EAA1BBB1BFD010DC0B3
S1130BE0AA1FBB1FEE1FFF1FA217B307E407F507D9
S1130BF020F0A21BB30BE40BF50B661F771F881FB5
S1130C00991F1A9469F760957095809590959B014A
S1130C10AC01BD01CF010895A29FB001B39FC001F3
S1130C20A39F01D0B29F700D811D1124911D0895C1
S1130C30A0E0B0E0EDE1F6E0D0C2AE014B5F5F4F63
S1130C40FA0161917191AF0180911B3E90911C3E1C
S1130C5032D0E2E0DBC20F931F93CF93DF93E09196
S1130C601B3EF0911C3E238121FF1BC08C01D0E070
S1130C70C0E0F80181918F0160911B3E70911C3E90
S1130C80DB011896ED91FC911997882331F00995B1
S1130C90892B79F3DFEFCFEFECCF8AE00995892B2D
S1130CA019F08FEF9FEF02C08D2F9C2FDF91CF9112
S1130CB01F910F910895ABE0B0E0E0E6F6E07DC24D
S1130CC06C017B018A01FC0116821782838181FFFA
S1130CD0BFC1CE0101963C01F6019381F70193FD5A
S1130CE0859193FF81917F01882309F4ADC18532F9
S1130CF039F493FD859193FF81917F01853221F42D
S1130D00B60190E0C0D1E8CF912C212C312CFFE129
S1130D10F315D8F08B3279F038F4803279F08332DD
S1130D20A1F4232D20611DC08D3261F0803369F45C
S1130D30232D216016C0832D8260382EE32DE460BC
S1130D403E2E2AC0F32DF8601DC037FC2DC020EDC7
S1130D50280F2A3040F08E32B9F436FC75C1232DA9
S1130D602064322E19C036FE06C08AE0989E200DFB
S1130D701124922E11C0EAE02E9E200D1124222E61
S1130D80F32DF0623F2E08C08C3621F4832D806849
S1130D90382E02C0883641F4F70193FD859193FF04
S1130DA081917F018111B3CF982F9F7D955493300A
S1130DB028F40C5F1F4F9FE399830DC0833631F0F5
S1130DC0833771F0833509F055C020C0F801808164
S1130DD089830E5F1F4F88248394912C530112C082
S1130DE02801F2E04F0E511CF801A080B18036FEBC
S1130DF003C0692D70E002C06FEF7FEFC50138D1E9
S1130E004C018201F32DFF773F2E15C0280122E00B
S1130E10420E511CF801A080B18036FE03C0692D3A
S1130E2070E002C06FEF7FEFC50117D14C01F32DC5
S1130E30F0683F2E820133FC19C0822D90E08816A1
S1130E409906A0F4B60180E290E01DD12A94F5CF72
S1130E50F50137FC859137FE81915F01B60190E081
S1130E6012D121102A9421E0821A9108811491044C
S1130E7079F7E1C0843611F0893639F5F80137FE87
S1130E8007C060817181828193810C5F1F4F08C00C
S1130E9060817181072E000C880B990B0E5F1F4F28
S1130EA0F32DFF763F2E97FF09C09095809570959E
S1130EB061957F4F8F4F9F4FF0683F2E2AE030E0BF
S1130EC0A3011DD1882E861844C0853731F4232D03
S1130ED02F7EB22E2AE030E025C0932D997FB92EC3
S1130EE08F36C1F018F4883579F0AEC0803719F028
S1130EF0883721F0A9C0E92FE061BE2EB4FE0DC0F1
S1130F00FB2DF460BF2E09C034FE0AC0292F2660D1
S1130F10B22E06C028E030E005C020E130E002C077
S1130F2020E132E0F801B7FE07C06081718182815F
S1130F3093810C5F1F4F06C06081718180E090E057
S1130F400E5F1F4FA301DBD0882E8618FB2DFF7781
S1130F503F2E36FE0DC0232D2E7FA22E891458F469
S1130F6034FE0BC032FC09C0832D8E7EA82E05C032
S1130F70B82CA32C03C0B82C01C0B92CA4FE0FC0FC
S1130F80FE01E80DF11D8081803321F49A2D997EB4
S1130F90A92E09C0A2FE06C0B394B39404C08A2D3E
S1130FA0867809F0B394A3FC10C0A0FE06C0B21466
S1130FB080F4280C922C9B180DC0B21458F4B6017E
S1130FC080E290E060D0B394F8CFB21418F42B18F8
S1130FD002C0982C212CA4FE0FC0B60180E390E03F
S1130FE052D0A2FE16C0A1FC03C088E790E002C064
S1130FF088E590E0B6010CC08A2D867851F0A1FEF8
S113100002C08BE201C080E2A7FC8DE2B60190E051
S11310103AD0891430F4B60180E390E034D09A9445
S1131020F8CF8A94F301E80DF11D8081B60190E0B8
S11310302AD08110F6CF222009F44ECEB60180E2E8
S113104090E021D02A94F7CFF6018681978102C0DF
S11310508FEF9FEF2B96E2E1C9C0FC010590615030
S113106070400110D8F7809590958E0F9F1F0895BA
S1131070FC016150704001900110D8F78095909563
S11310808E0F9F1F08950F931F93CF93DF93FB0140
S1131090238121FD03C08FEF9FEF2CC022FF16C0D8
S11310A046815781248135814217530744F4A08136
S11310B0B1819D012F5F3F4F208331838C93268123
S11310C037812F5F3F4F2683378314C08B01EC0198
S11310D0FB010084F185E02D0995892BE1F6D80107
S11310E016968D919C911797019616968D939C93C5
S11310F01797CE01DF91CF911F910F910895FA01B7
S1131100AA27283051F1203181F1E8946F936E7F42
S11311106E5F7F4F8F4F9F4FAF4FB1E03ED0B4E033
S11311203CD0670F781F891F9A1FA11D680F791F74
S11311308A1F911DA11D6A0F711D811D911DA11D85
S113114020D009F468943F912AE0269F1124301995
S1131150305D3193DEF6CF010895462F4770405D30
S11311604193B3E00FD0C9F7F6CF462F4F70405DDF
S11311704A3318F0495D31FD4052419302D0A9F73A
S1131180EACFB4E0A6959795879577956795BA9534
S1131190C9F700976105710508959B01AC010A2EFA
S11311A006945795479537952795BA95C9F7620FD1
S11311B0731F841F951FA01D08952F923F924F9275
S11311C05F926F927F928F929F92AF92BF92CF92D3
S11311D0DF92EF92FF920F931F93CF93DF93CDB7DC
S11311E0DEB7CA1BDB0BCDBFDEBF09942A88398862
S11311F048885F846E847D848C849B84AA84B984AB
S1131200C884DF80EE80FD800C811B81AA81B981B6
S1131210CE0FD11DCDBFDEBFED010895F894FFCFF1
S113122048656C6C6F20564C35334C58210D005B6F
S11312304552525D20496E6974206661696C65642B
S11312402E2048616C742E0D0064697374616E63A2
S10C125065203D2025640D0A000F
S1111259000000020000000035030000000049
S9030000FC
