S013000048756D616E4465746563742E73726563BF
S113000021C033C032C031C030C02FC02EC02DC07B
S11300102CC02BC02AC029C028C027C026C025C098
S113002024C023C022C021C020C01FC01EC01DC0C8
S11300301CC01BC05AC05BC05CC05DC05EC05FC05A
S113004060C061C011241FBECFEFCDBFDFE3DEBFB0
S11300501EE3A0E0BEE3ECE7F5E002C005900D92DC
S1130060A030B107D9F731D17FC2CACF51D097D0D0
S1130070ABD020E030E041E061E080E094E049D0A2
S113008020EA36E841E050E060E07DE281E391E07F
S11300908AD020E835E240E050E060E07DE281E390
S11300A091E09AD02FE78AE196E021508040904079
S11300B0E1F700C0000078946FE08CE695E8E3D0A7
S11300C0089541E061E080E094E053D0F8D08823C3
S11300D011F0EED0D1D00895462F50E048305105AC
S11300E0A0F4FA01E65EFF4F099440960895419604
S11300F00895429608954396089544960895459622
S11301000895469608954796089580E090E00895EE
S11301100895CF93DF93413051F421E030E002C0E1
S1130120220F331F6A95E2F7FC0121831FC0E90106
S113013021E030E0062E02C0220F331F0A94E2F7BA
S1130140FC012283C9DFFC01892B81F0209771F027
S11301508881811102C090E001C098E089818823E0
S113016019F08A81982B01C094609083DF91CF911C
S11301700895442351F021E030E002C0220F331FE0
S11301806A95E2F7FC012583089521E030E002C07E
S1130190220F331F6A95E2F7FC012683089581E05C
S11301A0809313080895220F331F441F551FBAD19B
S11301B0DA01C9010597A109B109E0E1F8E08683F4
S11301C081E0838385830895E0E0F8E0158280EC84
S11301D0868383E0878308950F931F93DC01CB010B
S11301E0880F991FAA1FBB1F880F991FAA1FBB1F27
S11301F0880F991FAA1FBB1F880F991FAA1FBB1F17
S1130200BC01CD01660F771F881F991F660F771FEA
S1130210881F991F89019A01000F111F221F331F84
S1130220000F111F221F331FA9019801220F331F32
S1130230441F551F220F331F441F551F73D1CA017A
S1130240B901E2D020E030E040E05FE342D0ADD03D
S1130250E0E0F8E060877187A0E2B4E084E0119602
S11302608C93119788E012968C9380EC868383E0BC
S113027087831F910F9108959091040895FFFCCFF7
S11302808093020808950F931F93CF93DF938C01FB
S1130290D62FC0E006C0F801EC0FF11D8081ECDF21
S11302A0CF5FCD17C0F3DF91CF911F910F910895C8
S11302B0809104088823E4F78091000808958091D0
S11302C00408881F8827881F0895D0DEFADEFECF31
S11302D05058BB27AA270E9480010C9458020E9400
S11302E04A0238F00E94510220F039F49F3F19F479
S11302F026F40C9447020EF4E095E7FB0C944102BB
S1130300E92F0E94690258F3BA176207730784073A
S1130310950720F079F4A6F50C948B020EF4E09581
S11303200B2EBA2FA02D0B01B90190010C01CA01AB
S1130330A0011124FF27591B99F0593F50F4503E56
S113034068F11A16F040A22F232F342F4427585F48
S1130350F3CF469537952795A795F0405395C9F760
S11303607EF41F16BA0B620B730B840BBAF0915018
S1130370A1F0FF0FBB1F661F771F881FC2F70EC0B7
S1130380BA0F621F731F841F48F48795779567958A
S1130390B795F7959E3F08F0B0CF9395880F08F076
S11303A09927EE0F9795879508950E94710288F01A
S11303B09F5798F0B92F9927B751B0F0E1F0660F25
S11303C0771F881F991F1AF0BA95C9F714C0B13066
S11303D091F00E948B02B1E008950C948B02672F78
S11303E0782F8827B85F39F0B93FCCF38695779595
S11303F06795B395D9F73EF490958095709561957E
S11304007F4F8F4F9F4F0895E89409C097FB3EF4A8
S113041090958095709561957F4F8F4F9F4F99234D
S1130420A9F0F92F96E9BB279395F69587957795CB
S11304306795B795F111F8CFFAF4BB0F11F460FF8B
S11304401BC06F5F7F4F8F4F9F4F16C0882311F0E3
S113045096E911C0772321F09EE8872F762F05C0F7
S1130460662371F096E8862F70E060E02AF09A9592
S1130470660F771F881FDAF7880F9695879597F987
S1130480089597F99F6780E870E060E008959FEF12
S113049080EC089500240A94161617061806090617
S11304A0089500240A9412161306140605060895E6
S11304B0092E0394000C11F4882352F0BB0F40F46E
S11304C0BF2B11F460FF04C06F5F7F4F8F4F9F4FAE
S11304D0089557FD9058440F551F59F05F3F71F030
S11304E04795880F97FB991F61F09F3F79F0879597
S11304F00895121613061406551FF2CF4695F1DF20
S113050008C0161617061806991FF1CF86957105AF
S1130510610508940895E894BB2766277727CB01E3
S113052097F90895A1E21A2EAA1BBB1BFD010DC069
S1130530AA1FBB1FEE1FFF1FA217B307E407F5078F
S113054020F0A21BB30BE40BF50B661F771F881F6B
S1130550991F1A9469F760957095809590959B0101
S10F0560AC01BD01CF010895F894FFCF59
S113056C48656C6C6F20564C35334C58210D0A0081
S9030000FC
