S013000048756D616E4465746563742E73726563BF
S113000021C030C02FC02FC02DC02CC02BC02AC08F
S113001029C028C027C026C025C024C023C022C0B0
S113002021C020C01FC01EC01DC01CC01BC01AC0E0
S113003019C018C0A9C0AAC0ABC0ACC0ADC0AEC086
S1130040AFC0B0C011241FBECFEFCDBFDFE3DEBF12
S11300502EE3A0E0BEE301C01D92A130B207E1F798
S113006095D1E3C2CDCF1F920F920FB60F921124F8
S11300708F931A9B02C084E083B98F910F900FBEB7
S11300800F901F90189580E039D082E047D08FD030
S1130090D5D0F2D020E030E041E061E080E094E0AF
S11300A087D020EA36E841E050E060E07DE281E379
S11300B091E0C8D020E835E240E050E060E07DE225
S11300C081E391E0E1D0789489E057D184E0CBD00A
S11300D06FE08EE296E82FD1089556D141E061E0B9
S11300E080E094E095D043D1882311F039D11CD11C
S11300F08091003E813009F4BDD00895811106C07D
S113010090E088ED84BF909360000895813029F4D5
S113011093E088ED84BF909360000895843081F06B
S113012018F4823031F021C0883089F08031B1F088
S11301301CC021E030E088ED84BF20936100089565
S113014023E030E088ED84BF20936100089525E02A
S113015030E088ED84BF20936100089527E030E00B
S113016088ED84BF20936100089590E088ED84BFFA
S1130170909361000895462F50E048305105A0F453
S1130180FA01E65EFF4F099440960895419608955A
S11301904296089543960895449608954596089581
S11301A0469608954796089580E090E0089508954E
S11301B0CF93DF93413051F421E030E002C0220FAD
S11301C0331F6A95E2F7FC0121831FC0E90121E096
S11301D030E0062E02C0220F331F0A94E2F7FC011E
S11301E02283C9DFFC01892B81F0209771F088817B
S11301F0811102C090E001C098E08981882319F040
S11302008A81982B01C094609083DF91CF910895E7
S1130210442351F021E030E002C0220F331F6A95DD
S1130220E2F7FC012583089521E030E002C0220FAB
S1130230331F6A95E2F7FC012683089581E08093D9
S113024013080895220F331F441F551FCCD1DA0120
S1130250C9010597A109B109E0E1F8E0868381E0CD
S1130260838385830895816090E028ED24BF809383
S11302705000089588950895E0E0F8E0158280EC38
S1130280868383E0878308950F931F93DC01CB015A
S1130290880F991FAA1FBB1F880F991FAA1FBB1F76
S11302A0880F991FAA1FBB1F880F991FAA1FBB1F66
S11302B0BC01CD01660F771F881F991F660F771F3A
S11302C0881F991F89019A01000F111F221F331FD4
S11302D0000F111F221F331FA9019801220F331F82
S11302E0441F551F220F331F441F551F7CD1CA01C1
S11302F0B901EBD020E030E040E05FE34BD0B6D072
S1130300E0E0F8E060877187A0E2B4E084E0119651
S11303108C93119788E012968C9380EC868383E00B
S113032087831F910F9108959091040895FFFCCF46
S11303308093020808950F931F93CF93DF938C014A
S1130340D62FC0E006C0F801EC0FF11D8081ECDF70
S1130350CF5FCD17C0F3DF91CF911F910F91089517
S1130360809104088823E4F780910008089580911F
S11303700408881F8827881F0895816090E028ED6D
S113038024BF809300010895A89508957CDEA5DE1E
S1130390FECF5058BB27AA270E94E1010C94B90252
S11303A00E94AB0238F00E94B20220F039F49F3F61
S11303B019F426F40C94A8020EF4E095E7FB0C94CF
S11303C0A202E92F0E94CA0258F3BA176207730700
S11303D08407950720F079F4A6F50C94EC020EF44A
S11303E0E0950B2EBA2FA02D0B01B90190010C0141
S11303F0CA01A0011124FF27591B99F0593F50F459
S1130400503E68F11A16F040A22F232F342F4427B0
S1130410585FF3CF469537952795A795F0405395A8
S1130420C9F77EF41F16BA0B620B730B840BBAF078
S11304309150A1F0FF0FBB1F661F771F881FC2F7E3
S11304400EC0BA0F621F731F841F48F487957795F7
S11304506795B795F7959E3F08F0B0CF9395880FB1
S113046008F09927EE0F9795879508950E94D20278
S113047088F09F5798F0B92F9927B751B0F0E1F061
S1130480660F771F881F991F1AF0BA95C9F714C011
S1130490B13091F00E94EC02B1E008950C94EC02AA
S11304A0672F782F8827B85F39F0B93FCCF386954A
S11304B077956795B395D9F73EF4909580957095A7
S11304C061957F4F8F4F9F4F0895E89409C097FB24
S11304D03EF490958095709561957F4F8F4F9F4F17
S11304E09923A9F0F92F96E9BB279395F69587955B
S11304F077956795B795F111F8CFFAF4BB0F11F41E
S113050060FF1BC06F5F7F4F8F4F9F4F16C08823C4
S113051011F096E911C0772321F09EE8872F762FFA
S113052005C0662371F096E8862F70E060E02AF03B
S11305309A95660F771F881FDAF7880F9695879527
S113054097F9089597F99F6780E870E060E008954F
S11305509FEF80EC089500240A94161617061806D7
S11305600906089500240A941216130614060506B3
S11305700895092E0394000C11F4882352F0BB0F44
S113058040F4BF2B11F460FF04C06F5F7F4F8F4FA7
S11305909F4F089557FD9058440F551F59F05F3FE2
S11305A071F04795880F97FB991F61F09F3F79F091
S11305B087950895121613061406551FF2CF469513
S11305C0F1DF08C0161617061806991FF1CF869595
S11305D07105610508940895E894BB276627772779
S11305E0CB0197F90895A1E21A2EAA1BBB1BFD01AA
S11305F00DC0AA1FBB1FEE1FFF1FA217B307E407FE
S1130600F50720F0A21BB30BE40BF50B661F771F55
S1130610881F991F1A9469F7609570958095909535
S11106209B01AC01BD01CF010895F894FFCFFA
S113062E48656C6C6F20564C35334C58210D0A00BE
S9030000FC
