S013000048756D616E4465746563742E73726563BF
S113000021C03BC03AC03AC038C037C036C035C042
S113001031C333C032C031C030C02FC02EC02DC058
S11300202CC02BC02AC029C028C027C026C025C088
S113003024C023C099C19AC19BC19CC19DC19EC1CA
S11300409FC1A0C111241FBECFEFCDBFDFE3DEBF30
S11300501FE3A0E0BFE3EEE9FDE002C005900D92CE
S1130060A231B107D9F72FE3A2E1BFE301C01D928A
S1130070A436B207E1F7C4D490C6C2CF1F920F9240
S11300800FB60F9211242F933F934F935F936F9367
S11300907F938F939F93AF93BF93EF93FF9365E009
S11300A080E094E0BBD1882331F081E08093523F1B
S11300B080E280930904FF91EF91BF91AF919F91EA
S11300C08F917F916F915F914F913F912F910F90FD
S11300D00FBE0F901F90189580E0C9D082E0D7D052
S11300E056D1A8D135D320E030E041E062E080E091
S11300F094E04ED120E030E041E061E080E494E01F
S113010047D120E030E041E060E080E494E040D179
S113011020E03FE340E065E080E094E039D120E86E
S113012035E240E050E060E876E988E990E014D3F5
S113013020EA36E841E050E060E876E988E990E0BA
S11301407DD140E450E060E876E988E990E0BAD2F5
S113015041E062E080E094E04BD178946BD381116C
S113016001C0FFCF2FEF88E09DE3215080409040F5
S1130170E1F700C000008EE1E6D0D8D26093533F8F
S11301807093543F8093553F9093563F10925B3F3A
S113019008950F931F93CAD20091533F1091543F77
S11301A02091553F3091563FDC01CB01801B910BD0
S11301B0A20BB30B85369105A105B10598F1B6D212
S11301C06093533F7093543F8093553F9093563FB1
S11301D0BED39C019091523F992321F125313105E1
S11301E008F180915B3FE82FF0E0EE0FFF1FEA5E1D
S11301F0F04C208331834091573F5091583F609198
S1130200593F70915A3F420F531F611D711D409316
S1130210573F5093583F6093593F70935A3F8F5FB5
S113022080935B3F20915B3F2A30F1F430E040E063
S113023050E06091573F7091583F8091593F9091A1
S11302405A3F7DD52093573F3093583F4093593FB1
S113025050935A3F10925B3F293E3340410551056C
S113026008F46CD01092523F1F910F9108958111A0
S113027006C090E088ED84BF9093600008958130BB
S113028029F493E088ED84BF90936000089584304E
S113029081F018F4823031F021C0883089F0803147
S11302A0B1F01CC021E030E088ED84BF20936100F0
S11302B0089523E030E088ED84BF20936100089521
S11302C025E030E088ED84BF20936100089527E0A5
S11302D030E088ED84BF20936100089590E088EDBC
S11302E084BF909361000895CF93DF93CDB7DEB7B9
S11302F02A97CDBFDEBF9EE799839FEF9A8396E04E
S11303009B838C8391E09D837E836F8390E08A5FDF
S11303109E4F870F911D860F911D9195819591098F
S1130320988789878FEE8A876AE0CE01019649D241
S11303302A96CDBFDEBFDF91CF91089560E070E0D3
S113034081E0D2DF08958F3108F08EE1682F70E0EC
S113035086E0CADF0895462F50E048305105A0F4E6
S1130360FA01E65EFF4F0994409608954196089578
S1130370429608954396089544960895459608959F
S1130380469608954796089580E090E0089508956C
S1130390CF93DF93413051F421E030E002C0220FCB
S11303A0331F6A95E2F7FC0121831FC0E90121E0B4
S11303B030E0062E02C0220F331F0A94E2F7FC013C
S11303C02283C9DFFC01892B81F0209771F0888199
S11303D0811102C090E001C098E08981882319F05E
S11303E08A81982B01C094609083DF91CF91089506
S11303F0442351F021E030E002C0220F331F6A95FC
S1130400E2F7FC012583089521E030E002C0220FC9
S1130410331F6A95E2F7FC0126830895FC012085C9
S113042030E002C0359527956A95E2F781E020FF18
S113043080E0089581E0809313080895220F331F0C
S1130440441F551F7CD4BA01A901455051096109C3
S11304507109A0E1B8E016964C931697E0E2F4E037
S113046081818360818385818360858383E01396A2
S11304708C93139781E015968C93089590911508A9
S113048093709330D9F3880F8093170880911508DF
S1130490807CE1F38091150884FF1AC083E0809387
S11304A0140880E00895FB01E90FF11D8081809319
S11304B018088091150886FFFCCF8091150884FFE9
S11304C005C083E08093140880E008959F5F01C015
S11304D090E0941740F383E08093140881E008953A
S11304E0982F990F909317089091150896FFFCCFB9
S11304F0609318089091150896FFFCCF90E0880F40
S1130500991F81608093170890E01BC080911508A3
S11305108823E4F7E92FF0E0622F70E0615071095D
S1130520E617F70721F487E08093140803C082E0FC
S113053080931408FA01E90FF11D80911808808353
S11305409F5F921718F381E00895982F990F909365
S113055017089091150896FFFCCF9091150894FF09
S113056005C083E08093140880E008957093180810
S11305709091150896FFFCCF9091150894FF05C043
S113058083E08093140880E00895609318089091A4
S1130590150896FFFCCF9091150894FF05C083E0E1
S11305A08093140880E0089590E0880F991F81607B
S11305B08093170890E01BC0809115088823E4F706
S11305C0E92FF0E0622F70E061507109E617F70738
S11305D021F487E08093140803C082E08093140818
S11305E0FA01E90FF11D8091180880839F5F92172B
S11305F018F381E008958830910521F148F48230A0
S11306009105C1F084309105C9F0019779F50FC0C7
S113061080349105F9F018F44097C1F027C0811592
S113062021E09207D9F081159440E1F01FC01092A7
S1130630000A089582E08093000A089584E080937C
S1130640000A089586E08093000A089588E0809364
S1130650000A08958AE08093000A08958CE080934C
S1130660000A08958EE08093000A08958AE080933A
S1130670000A08951F920F920FB60F9211248F93C0
S11306809F93AF93BF938091123F9091133FA0919A
S1130690143FB091153F0196A11DB11D8093123FE7
S11306A09093133FA093143FB093153F81E0809340
S11306B00B0ABF91AF919F918F910F900FBE0F9036
S11306C01F901895CF92DF92EF92FF92CF93DF9312
S11306D06B017C01EA019A01A8EEB3E052D39B01BD
S11306E0AC01C701B6012BD369017A0181E0C81AB4
S11306F0D108E108F108C114D10481E0E806F1044D
S113070068F4CE0178DFE0E0FAE0C6A2D7A281E087
S1130710828780818160808381E001C080E0DF91F5
S1130720CF91FF90EF90DF90CF900895F89460916F
S1130730123F7091133F8091143F9091153F78942C
S1130740089583E09FE38093603F9093613F089511
S113075010920508F6DF0895CA01B901F5D120E029
S113076030E040E851E47ED29B01AC0160E876E9D8
S113077088E19EE448D1B9D1E0E0F8E06087718770
S1130780A0E2B4E084E011968C93119788E012966D
S11307908C9380EC868383E087830895909104088A
S11307A095FFFCCF809302080895CF93C82F8A3019
S11307B011F48DE0F3DF8C2FF1DF80E090E0CF9136
S11307C008950F931F93CF93DF938C01D62FC0E02E
S11307D006C0F801EC0FF11D8081E0DFCF5FCD177B
S11307E0C0F3DF91CF911F910F910895CF93DF93C1
S11307F000D0CDB7DEB789836A8342E0BE016F5F64
S11308007F4F89E23BDE0F900F90DF91CF910895E7
S1130810CF93DF931F92CDB7DEB7198221E0AE01EB
S11308204F5F5F4F682F89E25BDE89810F90DF9114
S1130830CF91089580EC90E0EBDF8E3EE1F460E030
S113084088E8D4DF61E080E8D1DF61E08FEFCEDFBC
S113085060E080E0CBDF81E990E0DADF80935D3F08
S113086061E080E0C3DF60E08FEFC0DF60E080E83C
S1130870BDDF81E0089580E00895FF920F931F93F8
S1130880CF93DF93CDB7DEB7C054D109CDBFDEBF60
S11308908B01F42E242FAE014F5F5F4F682F89E246
S11308A01FDE811103C08FEF89838A8320E00EC08D
S11308B0822F90E0F801E80FF91FA1E0B0E0AC0F3F
S11308C0BD1FA80FB91F8C9180832F5F2F1580F354
S11308D0C05CDF4FCDBFDEBFDF91CF911F910F9181
S11308E0FF900895FF920F931F93CF93DF93CDB79B
S11308F0DEB7C054D109CDBFDEBF8B01F42E242F47
S1130900AE014F5F5F4FBC0189E21FDE811103C05E
S11309108FEF89838A8320E00EC0822F90E0F80154
S1130920E80FF91FA1E0B0E0AC0FBD1FA80FB91F7D
S11309308C9180832F5F2F1580F3C05CDF4FCDBF78
S1130940DEBFDF91CF911F910F91FF9008950F9318
S11309501F93CF93DF9300D01F92CDB7DEB761E032
S113096080E844DF61E08FEF41DF60E080E03EDF5C
S113097060915D3F81E93ADF61E080E037DF60E06C
S11309808FEF34DF60E080E831DF61E080E02EDF6C
S113099080E090E03DDF80FDFBCF08E813E10EC06E
S11309A041E0BE016F5F7F4F83E190E09BDF015028
S11309B01109E1F081E28A95F1F7000089818770DD
S11309C079F342E0BE016E5F7F4F8EE156DF0A810C
S11309D010E0102F00278B81082B61E08BE006DFED
S11309E060E080E003DF802F912F02C08FEF9FEF44
S11309F02396CDBFDEBFDF91CF911F910F91089554
S1130A006BDBC7DBFECF0E9417050C94F8050E9430
S1130A10F10558F00E94EA0540F029F45F3F29F0FF
S1130A200C94E10551110C942C060C94E7050E94DA
S1130A30090668F39923B1F3552391F3951B550BDC
S1130A40BB27AA2762177307840738F09F5F5F4F9D
S1130A50220F331F441FAA1FA9F335D00E2E3AF0DC
S1130A60E0E832D091505040E695001CCAF72BD0F4
S1130A70FE2F29D0660F771F881FBB1F2617370745
S1130A804807AB07B0E809F0BB0B802DBF01FF2777
S1130A9093585F4F3AF09E3F510578F00C94E1056E
S1130AA00C942C065F3FE4F3983ED4F38695779537
S1130AB06795B795F7959F5FC9F7880F911D969530
S1130AC0879597F90895E1E0660F771F881FBB1F8C
S1130AD0621773078407BA0720F0621B730B840B39
S1130AE0BA0BEE1F88F7E09508950E94110688F06E
S1130AF09F5798F0B92F9927B751B0F0E1F0660FDE
S1130B00771F881F991F1AF0BA95C9F714C0B1301E
S1130B1091F00E942B06B1E008950C942B06672FE8
S1130B20782F8827B85F39F0B93FCCF3869577954D
S1130B306795B395D9F73EF4909580957095619536
S1130B407F4F8F4F9F4F0895E89409C097FB3EF461
S1130B5090958095709561957F4F8F4F9F4F992306
S1130B60A9F0F92F96E9BB279395F6958795779584
S1130B706795B795F111F8CFFAF4BB0F11F460FF44
S1130B801BC06F5F7F4F8F4F9F4F16C0882311F09C
S1130B9096E911C0772321F09EE8872F762F05C0B0
S1130BA0662371F096E8862F70E060E02AF09A954B
S1130BB0660F771F881FDAF7880F9695879597F940
S1130BC0089597F99F6780E870E060E008959FEFCB
S1130BD080EC089500240A941616170618060906D0
S1130BE0089500240A94121613061406050608959F
S1130BF0092E0394000C11F4882352F0BB0F40F427
S1130C00BF2B11F460FF04C06F5F7F4F8F4F9F4F66
S1130C10089557FD9058440F551F59F05F3F71F0E8
S1130C204795880F97FB991F61F09F3F79F087954F
S1130C300895121613061406551FF2CF4695F1DFD8
S1130C4008C0161617061806991FF1CF8695710568
S1130C50610508940895E894BB2766277727CB019C
S1130C6097F908950E9445060C94F8050E94EA0538
S1130C7038F00E94F10520F0952311F00C94E10561
S1130C800C94E70511240C942C060E94090670F3B9
S1130C90959FC1F3950F50E0551F629FF001729F1D
S1130CA0BB27F00DB11D639FAA27F00DB11DAA1F2C
S1130CB0649F6627B00DA11D661F829F2227B00D79
S1130CC0A11D621F739FB00DA11D621F839FA00D04
S1130CD0611D221F749F3327A00D611D231F849F54
S1130CE0600D211D822F762F6A2F11249F575040AB
S1130CF09AF0F1F088234AF0EE0FFF1FBB1F661F26
S1130D00771F881F91505040A9F79E3F510580F0EE
S1130D100C94E1050C942C065F3FE4F3983ED4F365
S1130D20869577956795B795F795E7959F5FC1F792
S1130D30FE2B880F911D9695879597F90895A1E24A
S1130D401A2EAA1BBB1BFD010DC0AA1FBB1FEE1F41
S1130D50FF1FA217B307E407F50720F0A21BB30B8C
S1130D60E40BF50B661F771F881F991F1A9469F708
S1130D7060957095809590959B01AC01BD01CF0164
S1130D800895A29FB001B39FC001A39F01D0B29F59
S1110D90700D811D1124911D0895F894FFCF5C
S1130D9E0001020000000200000000D50300000064
S1050DAE00003F
S9030000FC
