S013000048756D616E4465746563742E73726563BF
S113000021C03BC03AC03AC038C037C036C035C042
S113001034C033C032C031C030C02FC02EC02DC058
S11300202CC02BC02AC029C028C027C026C025C088
S113003024C023C0A2C2A3C2A4C2A5C2A6C2A7C28E
S1130040A8C2A9C211241FBECFEFCDBFDFE3DEBF1C
S11300501EE3A0E0BEE3E4ECF1E102C005900D92E2
S1130060AE30B107D9F72EE3AEE0BEE301C01D9276
S1130070A631B207E1F7B9D36FC8C2CF1F920F926E
S11300800FB60F9211248F931A9B02C084E083B998
S11300908F910F900FBE0F901F901895CF93DF9301
S11300A000D0CDB7DEB789836A8342E0BE016F5FBB
S11300B07F4F89E2E0D20F900F90DF91CF910895A6
S11300C0CF93DF931F92CDB7DEB7198221E0AE0143
S11300D04F5F5F4F682F89E200D389810F90DF91D2
S11300E0CF910895CF93DF9300D0CDB7DEB722E050
S11300F0AE014F5F5F4F682F89E2EFD2898190E0B4
S1130100982F88272A81822B0F900F90DF91CF910F
S11301100895DF92EF92FF920F931F93CF93DF9393
S1130120CDB7DEB72697CDBFDEBF80ECC9DF8E3EEC
S113013009F023C160E088E8B1DF61E080E8AEDF68
S113014061E08FEFABDF60E080E0A8DF81E9B8DF3A
S113015080930E3E61E080E0A1DF60E08FEF9EDFE0
S113016060E080E89BDF64E08AE098DF61E08BE098
S113017095DF61E080E892DF61E08FEF8FDF60E080
S113018080E08CDF66E08FEF89DF83E899DF682FFA
S1130190646083E883DF67E08FEF80DF61E081E8FC
S11301A07DDF61E080E87ADF6BE684E977DF60E099
S11301B083E874DF08E813E10AC00150110909F467
S11301C0DEC089EF90E00197F1F700C0000083E8FA
S11301D077DF882391F361E083E860DF82E970DFF1
S11301E0182F1F77D82EDD1CDD24DD1C60E081E88C
S11301F055DF66E08FEF52DF83E862DF682F6B7FA5
S113020083E84CDF61E08FEF49DF61E080E046DFA7
S113021060E08FEF43DF60E080E840DF00E00DC086
S1130220E02EF12C80EB800F4BDFE1E0F0E0EC0FEF
S1130230FD1FEE0DFF1D80830F5F063088F3DD2068
S113024011F04CE001C040E080E050E034C084177D
S113025010F05117C0F0982F977021E030E002C0E1
S1130260220F331F9A95E2F7982F969596959695B7
S1130270E1E0F0E0EC0FFD1FE90FF11D2095908106
S11302802923208317C0982F977021E030E002C003
S1130290220F331F9A95E2F7982F96959695969587
S11302A0E1E0F0E0EC0FFD1FE90FF11D9081292B37
S11302B020835F5F8F5F803350F210E00BC0E1E07A
S11302C0F0E0EC0FFD1FE10FF11D608180EB810F69
S11302D0E5DE1F5F163098F361E08FEFDFDE60E04C
S11302E080E0DCDE60E08FEFD9DE60E089E0D6DE1E
S11302F060E080E1D3DE60E081E1D0DE61E081E0B6
S1130300CDDE61E080E0CADE80E0DADE80FDFCCF95
S113031000E117E209C00150110999F189EF90E059
S11303200197F1F700C0000083E1CADE877099F3FA
S113033061E08BE0B3DE62E081E0B0DE61E080E0AA
S1130340ADDE80E0BDDE80FDFCCF08EE13E009C029
S113035001501109C1F089EF90E00197F1F700C055
S1130360000083E1ADDE877099F361E08BE096DEF7
S113037068EE81E093DE81E007C080E005C080E0A4
S113038003C080E001C080E02696CDBFDEBFDF91D0
S1130390CF911F910F91FF90EF90DF900895CF932D
S11303A0DF9361E080E87ADE61E08FEF77DE60E082
S11303B080E074DE60910E3E81E970DE61E080E0F1
S11303C06DDE60E08FEF6ADE60E080E867DE61E0AA
S11303D080E064DE80E074DE80FDFCCFC8E8D3E119
S11303E008C02197B9F089EF90E00197F1F700C0B8
S11303F0000083E165DE8770A1F38EE173DED82F00
S1130400C92F61E08BE04ADE60E080E047DE8D2F9B
S11304109C2F02C08FEF9FEFDF91CF91089580E072
S113042066D082E074D0BCD002D1A6D19AD120E0AB
S113043030E041E061E080E094E0B3D020E835E2D0
S113044040E050E060E876E988E990E099D120EA5C
S113045036E841E050E060E876E988E990E0EBD0E6
S11304602FE382E49FE0215080409040E1F700C0F8
S1130470000078948CE591E98CD34BDE811104C0A3
S11304808BE691E986D3FFCF80910E3E1F928F9326
S113049085E891E99F938F9369D30F900F900F9004
S11304A00F90089541E061E080E094E0AAD077DF06
S11304B09F938F938BE991E99F938F9357D380E018
S11304C0FFDD1F928F938BEA91E99F938F934ED315
S11304D02FE78AE196E0215080409040E1F700C088
S11304E000008DB79EB708968DBF9EBF08958111F9
S11304F006C090E088ED84BF909360000895813039
S113050029F493E088ED84BF9093600008958430CB
S113051081F018F4823031F021C0883089F08031C4
S1130520B1F01CC021E030E088ED84BF209361006D
S1130530089523E030E088ED84BF2093610008959E
S113054025E030E088ED84BF20936100089527E022
S113055030E088ED84BF20936100089590E088ED39
S113056084BF909361000895462F50E048305105B0
S1130570A0F4FA01E65EFF4F09944096089541966F
S1130580089542960895439608954496089545968D
S11305900895469608954796089580E090E008955A
S11305A00895CF93DF93413051F421E030E002C04D
S11305B0220F331F6A95E2F7FC0121831FC0E90172
S11305C021E030E0062E02C0220F331F0A94E2F726
S11305D0FC012283C9DFFC01892B81F0209771F093
S11305E08881811102C090E001C098E0898188234C
S11305F019F08A81982B01C094609083DF91CF9188
S11306000895442351F021E030E002C0220F331F4B
S11306106A95E2F7FC012583089521E030E002C0E9
S1130620220F331F6A95E2F7FC012683089581E0C7
S1130630809313080895220F331F441F551F74D24B
S1130640BA01A9014550510961097109A0E1B8E055
S113065016964C931697E0E2F4E0818183608183DF
S113066085818360858383E013968C93139781E05F
S113067015968C9308959091150893709330D9F33F
S1130680880F8093170880911508807CE1F380918E
S1130690150884FF1AC083E08093140880E008954D
S11306A0FB01E90FF11D80818093180880911508E2
S11306B086FFFCCF8091150884FF05C083E08093FA
S11306C0140880E008959F5F01C090E0941740F300
S11306D083E08093140881E00895982F990F9093F4
S11306E017089091150896FFFCCF9091150894FF78
S11306F005C083E08093140880E00895609318088F
S11307009091150896FFFCCF90E0880F991F8160A7
S113071080931708809115088823E4F780E017C0B8
S1130720E82FF0E0DA01AE0FBF1F909118089C93F8
S1130730622F70E061507109E617F70724F492E024
S11307409093140803C097E0909314088F5F821766
S113075038F383ED90E30197F1F700C0000081E0E6
S113076008958AE08093000A089580E09EE38093D0
S1130770123E9093133E089510920508F6DF0895F3
S1130780CA01B901D6D020E030E040E851E45FD19D
S11307909B01AC0160E876E988E19EE429D09AD017
S11307A0E0E0F8E060877187A0E2B4E084E01196AD
S11307B08C93119788E012968C9380EC868383E067
S11307C0878308959091040895FFFCCF80930208D5
S11307D00895CF93C82F8A3011F48DE0F3DF8C2F66
S11307E0F1DF80E090E0CF91089519DE5BDEFECF6B
S11307F00E940C040C94ED040E94E60458F00E943C
S1130800DF0440F029F45F3F29F00C94D604511121
S11308100C9421050C94DC040E94FE0468F39923D3
S1130820B1F3552391F3951B550BBB27AA276217E8
S11308307307840738F09F5F5F4F220F331F441FF5
S1130840AA1FA9F335D00E2E3AF0E0E832D0915029
S11308505040E695001CCAF72BD0FE2F29D0660F16
S1130860771F881FBB1F261737074807AB07B0E859
S113087009F0BB0B802DBF01FF2793585F4F3AF05F
S11308809E3F510578F00C94D6040C9421055F3FEB
S1130890E4F3983ED4F3869577956795B795F795E5
S11308A09F5FC9F7880F911D9695879597F90895CD
S11308B0E1E0660F771F881FBB1F62177307840769
S11308C0BA0720F0621B730B840BBA0BEE1F88F778
S11308D0E09508950E94060588F09F5798F0B92F77
S11308E09927B751B0F0E1F0660F771F881F991F61
S11308F01AF0BA95C9F714C0B13091F00E942005DE
S1130900B1E008950C942005672F782F8827B85FED
S113091039F0B93FCCF3869577956795B395D9F7B8
S11309203EF490958095709561957F4F8F4F9F4FC2
S11309300895E89409C097FB3EF4909580957095CE
S113094061957F4F8F4F9F4F9923A9F0F92F96E917
S1130950BB279395F695879577956795B795F1118C
S1130960F8CFFAF4BB0F11F460FF1BC06F5F7F4F29
S11309708F4F9F4F16C0882311F096E911C077233B
S113098021F09EE8872F762F05C0662371F096E844
S1130990862F70E060E02AF09A95660F771F881F13
S11309A0DAF7880F9695879597F9089597F99F67D1
S11309B080E870E060E008959FEF80EC08950024E3
S11309C00A941616170618060906089500240A94B0
S11309D012161306140605060895092E0394000C36
S11309E011F4882352F0BB0F40F4BF2B11F460FFC5
S11309F004C06F5F7F4F8F4F9F4F089557FD9058EE
S1130A00440F551F59F05F3F71F04795880F97FBCE
S1130A10991F61F09F3F79F0879508951216130688
S1130A201406551FF2CF4695F1DF08C016161706B7
S1130A301806991FF1CF86957105610508940895EC
S1130A40E894BB2766277727CB0197F908950E947E
S1130A503A050C94ED040E94DF0438F00E94E60489
S1130A6020F0952311F00C94D6040C94DC0411248A
S1130A700C9421050E94FE0470F3959FC1F3950F19
S1130A8050E0551F629FF001729FBB27F00DB11D0E
S1130A90639FAA27F00DB11DAA1F649F6627B00D9E
S1130AA0A11D661F829F2227B00DA11D621F739F87
S1130AB0B00DA11D621F839FA00D611D221F749F95
S1130AC03327A00D611D231F849F600D211D822FDC
S1130AD0762F6A2F11249F5750409AF0F1F0882303
S1130AE04AF0EE0FFF1FBB1F661F771F881F915030
S1130AF05040A9F79E3F510580F00C94D6040C9405
S1130B0021055F3FE4F3983ED4F386957795679586
S1130B10B795F795E7959F5FC1F7FE2B880F911D59
S1130B209695879597F90895A1E21A2EAA1BBB1BE7
S1130B30FD010DC0AA1FBB1FEE1FFF1FA217B307A5
S1130B40E407F50720F0A21BB30BE40BF50B661FBB
S1130B50771F881F991F1A9469F76095709580957F
S1130B6090959B01AC01BD01CF010895A0E0B0E0D8
S1130B70EBEBF5E0D0C2AE014B5F5F4FFA01619140
S1130B807191AF018091123E9091133E32D0E2E018
S1130B90DBC20F931F93CF93DF93E091123EF0914A
S1130BA0133E238121FF1BC08C01D0E0C0E0F8017B
S1130BB081918F016091123E7091133EDB01189672
S1130BC0ED91FC911997882331F00995892B79F3DC
S1130BD0DFEFCFEFECCF8AE00995892B19F08FEF87
S1130BE09FEF02C08D2F9C2FDF91CF911F910F910A
S1130BF00895ABE0B0E0EEEFF5E07DC26C017B015F
S1130C008A01FC0116821782838181FFBFC1CE0154
S1130C1001963C01F6019381F70193FD859193FFC1
S1130C2081917F01882309F4ADC1853239F493FDA4
S1130C30859193FF81917F01853221F4B60190E083
S1130C40C0D1E8CF912C212C312CFFE1F315D8F041
S1130C508B3279F038F4803279F08332A1F4232D89
S1130C6020611DC08D3261F0803369F4232D216031
S1130C7016C0832D8260382EE32DE4603E2E2AC0F8
S1130C80F32DF8601DC037FC2DC020ED280F2A304D
S1130C9040F08E32B9F436FC75C1232D2064322E17
S1130CA019C036FE06C08AE0989E200D1124922EAB
S1130CB011C0EAE02E9E200D1124222EF32DF062A5
S1130CC03F2E08C08C3621F4832D8068382E02C054
S1130CD0883641F4F70193FD859193FF81917F015B
S1130CE08111B3CF982F9F7D9554933028F40C5FD6
S1130CF01F4F9FE399830DC0833631F0833771F022
S1130D00833509F055C020C0F801808189830E5FC6
S1130D101F4F88248394912C530112C02801F2E0C0
S1130D204F0E511CF801A080B18036FE03C0692D1E
S1130D3070E002C06FEF7FEFC50138D14C01820132
S1130D40F32DFF773F2E15C0280122E0420E511CDF
S1130D50F801A080B18036FE03C0692D70E002C0A6
S1130D606FEF7FEFC50117D14C01F32DF0683F2ED3
S1130D70820133FC19C0822D90E088169906A0F4F4
S1130D80B60180E290E01DD12A94F5CFF50137FC3D
S1130D90859137FE81915F01B60190E012D1211057
S1130DA02A9421E0821A91088114910479F7E1C010
S1130DB0843611F0893639F5F80137FE07C06081B1
S1130DC07181828193810C5F1F4F08C060817181A2
S1130DD0072E000C880B990B0E5F1F4FF32DFF7627
S1130DE03F2E97FF09C090958095709561957F4F30
S1130DF08F4F9F4FF0683F2E2AE030E0A3011DD1B2
S1130E00882E861844C0853731F4232D2F7EB22EC8
S1130E102AE030E025C0932D997FB92E8F36C1F09A
S1130E2018F4883579F0AEC0803719F0883721F08E
S1130E30A9C0E92FE061BE2EB4FE0DC0FB2DF46005
S1130E40BF2E09C034FE0AC0292F2660B22E06C068
S1130E5028E030E005C020E130E002C020E132E0CB
S1130E60F801B7FE07C060817181828193810C5FB4
S1130E701F4F06C06081718180E090E00E5F1F4FBC
S1130E80A301DBD0882E8618FB2DFF773F2E36FE7C
S1130E900DC0232D2E7FA22E891458F434FE0BC0CE
S1130EA032FC09C0832D8E7EA82E05C0B82CA32C3D
S1130EB003C0B82C01C0B92CA4FE0FC0FE01E80D7C
S1130EC0F11D8081803321F49A2D997EA92E09C0C9
S1130ED0A2FE06C0B394B39404C08A2D867809F0A8
S1130EE0B394A3FC10C0A0FE06C0B21480F4280C76
S1130EF0922C9B180DC0B21458F4B60180E290E015
S1130F0060D0B394F8CFB21418F42B1802C0982C04
S1130F10212CA4FE0FC0B60180E390E052D0A2FEC3
S1130F2016C0A1FC03C088E790E002C088E590E009
S1130F30B6010CC08A2D867851F0A1FE02C08BE266
S1130F4001C080E2A7FC8DE2B60190E03AD089149A
S1130F5030F4B60180E390E034D09A94F8CF8A94C8
S1130F60F301E80DF11D8081B60190E02AD08110D3
S1130F70F6CF222009F44ECEB60180E290E021D0D3
S1130F802A94F7CFF6018681978102C08FEF9FEFF5
S1130F902B96E2E1C9C0FC0105906150704001103C
S1130FA0D8F7809590958E0F9F1F0895FC0161508E
S1130FB0704001900110D8F7809590958E0F9F1F77
S1130FC008950F931F93CF93DF93FB01238121FD9A
S1130FD003C08FEF9FEF2CC022FF16C046815781BC
S1130FE0248135814217530744F4A081B1819D01C6
S1130FF02F5F3F4F208331838C93268137812F5F6E
S11310003F4F2683378314C08B01EC01FB0100841E
S1131010F185E02D0995892BE1F6D80116968D917D
S11310209C911797019616968D939C931797CE01D2
S1131030DF91CF911F910F910895FA01AA272830CB
S113104051F1203181F1E8946F936E7F6E5F7F4F91
S11310508F4F9F4FAF4FB1E03ED0B4E03CD0670F0D
S1131060781F891F9A1FA11D680F791F8A1F911D60
S1131070A11D6A0F711D811D911DA11D20D009F4B0
S113108068943F912AE0269F11243019305D3193F2
S1131090DEF6CF010895462F4770405D4193B3E0DB
S11310A00FD0C9F7F6CF462F4F70405D4A3318F082
S11310B0495D31FD4052419302D0A9F7EACFB4E033
S11310C0A6959795879577956795BA95C9F70097EB
S11310D06105710508959B01AC010A2E069457958C
S11310E0479537952795BA95C9F7620F731F841FE3
S11310F0951FA01D08952F923F924F925F926F9279
S11311007F928F929F92AF92BF92CF92DF92EF9293
S1131110FF920F931F93CF93DF93CDB7DEB7CA1B14
S1131120DB0BCDBFDEBF09942A88398848885F84E9
S11311306E847D848C849B84AA84B984C884DF8073
S1131140EE80FD800C811B81AA81B981CE0FD11D57
S10F1150CDBFDEBFED010895F894FFCF81
S113115C48656C6C6F20564C35334C58210D005B34
S113116C4552525D20496E6974206661696C6564F0
S113117C2E2048616C742E0D0073746F705F766151
S113118C726961626C653A20307825780D0A0064C6
S113119C697374616E6365203D2025640D0A00300B
S11311AC7830302061667465722073746172743A9D
S10B11BC20307825580D0A00CB
S11111C40000000200000000E903000000002B
S9030000FC
